{
  "contractName": "Bank",
  "abi": [
    {
      "anonymous": false,
      "inputs": [
        {
          "indexed": false,
          "internalType": "uint256",
          "name": "amount",
          "type": "uint256"
        },
        {
          "indexed": true,
          "internalType": "address",
          "name": "depositedTo",
          "type": "address"
        }
      ],
      "name": "depositDone",
      "type": "event"
    },
    {
      "inputs": [],
      "name": "destroy",
      "outputs": [],
      "stateMutability": "nonpayable",
      "type": "function"
    },
    {
      "inputs": [],
      "name": "deposit",
      "outputs": [
        {
          "internalType": "uint256",
          "name": "",
          "type": "uint256"
        }
      ],
      "stateMutability": "payable",
      "type": "function"
    },
    {
      "inputs": [
        {
          "internalType": "uint256",
          "name": "amount",
          "type": "uint256"
        }
      ],
      "name": "withdraw",
      "outputs": [
        {
          "internalType": "uint256",
          "name": "",
          "type": "uint256"
        }
      ],
      "stateMutability": "nonpayable",
      "type": "function"
    },
    {
      "inputs": [],
      "name": "getBalance",
      "outputs": [
        {
          "internalType": "uint256",
          "name": "",
          "type": "uint256"
        }
      ],
      "stateMutability": "view",
      "type": "function"
    },
    {
      "inputs": [
        {
          "internalType": "address",
          "name": "recipient",
          "type": "address"
        },
        {
          "internalType": "uint256",
          "name": "amount",
          "type": "uint256"
        }
      ],
      "name": "transfer",
      "outputs": [],
      "stateMutability": "nonpayable",
      "type": "function"
    }
  ],
  "bytecode": "0x608060405234801561001057600080fd5b50336000806101000a81548173ffffffffffffffffffffffffffffffffffffffff021916908373ffffffffffffffffffffffffffffffffffffffff160217905550610979806100606000396000f3fe60806040526004361061004a5760003560e01c806312065fe01461004f5780632e1a7d4d1461007a57806383197ef0146100b7578063a9059cbb146100ce578063d0e30db0146100f7575b600080fd5b34801561005b57600080fd5b50610064610115565b604051610071919061065b565b60405180910390f35b34801561008657600080fd5b506100a1600480360381019061009c91906106a7565b61015c565b6040516100ae919061065b565b60405180910390f35b3480156100c357600080fd5b506100cc610291565b005b3480156100da57600080fd5b506100f560048036038101906100f09190610732565b610307565b005b6100ff6104a6565b60405161010c919061065b565b60405180910390f35b6000600160003373ffffffffffffffffffffffffffffffffffffffff1673ffffffffffffffffffffffffffffffffffffffff16815260200190815260200160002054905090565b60008060009054906101000a900473ffffffffffffffffffffffffffffffffffffffff1673ffffffffffffffffffffffffffffffffffffffff163373ffffffffffffffffffffffffffffffffffffffff16146101b757600080fd5b81600160003373ffffffffffffffffffffffffffffffffffffffff1673ffffffffffffffffffffffffffffffffffffffff16815260200190815260200160002054101561020357600080fd5b3373ffffffffffffffffffffffffffffffffffffffff166108fc839081150290604051600060405180830381858888f19350505050158015610249573d6000803e3d6000fd5b50600160003373ffffffffffffffffffffffffffffffffffffffff1673ffffffffffffffffffffffffffffffffffffffff168152602001908152602001600020549050919050565b60008054906101000a900473ffffffffffffffffffffffffffffffffffffffff1673ffffffffffffffffffffffffffffffffffffffff163373ffffffffffffffffffffffffffffffffffffffff16146102e957600080fd5b60003390508073ffffffffffffffffffffffffffffffffffffffff16ff5b80600160003373ffffffffffffffffffffffffffffffffffffffff1673ffffffffffffffffffffffffffffffffffffffff168152602001908152602001600020541015610389576040517f08c379a0000000000000000000000000000000000000000000000000000000008152600401610380906107cf565b60405180910390fd5b8173ffffffffffffffffffffffffffffffffffffffff163373ffffffffffffffffffffffffffffffffffffffff1614156103f8576040517f08c379a00000000000000000000000000000000000000000000000000000000081526004016103ef9061083b565b60405180910390fd5b6000600160003373ffffffffffffffffffffffffffffffffffffffff1673ffffffffffffffffffffffffffffffffffffffff168152602001908152602001600020549050610447338484610591565b8181610453919061088a565b600160003373ffffffffffffffffffffffffffffffffffffffff1673ffffffffffffffffffffffffffffffffffffffff16815260200190815260200160002054146104a1576104a06108be565b5b505050565b600034600160003373ffffffffffffffffffffffffffffffffffffffff1673ffffffffffffffffffffffffffffffffffffffff16815260200190815260200160002060008282546104f791906108ed565b925050819055503373ffffffffffffffffffffffffffffffffffffffff167f55b8d2fc1aaf27628691a3336b517d7b40bee36ba595a24e893d1e872afb82d134604051610544919061065b565b60405180910390a2600160003373ffffffffffffffffffffffffffffffffffffffff1673ffffffffffffffffffffffffffffffffffffffff16815260200190815260200160002054905090565b80600160008573ffffffffffffffffffffffffffffffffffffffff1673ffffffffffffffffffffffffffffffffffffffff16815260200190815260200160002060008282546105e0919061088a565b9250508190555080600160008473ffffffffffffffffffffffffffffffffffffffff1673ffffffffffffffffffffffffffffffffffffffff168152602001908152602001600020600082825461063691906108ed565b92505081905550505050565b6000819050919050565b61065581610642565b82525050565b6000602082019050610670600083018461064c565b92915050565b600080fd5b61068481610642565b811461068f57600080fd5b50565b6000813590506106a18161067b565b92915050565b6000602082840312156106bd576106bc610676565b5b60006106cb84828501610692565b91505092915050565b600073ffffffffffffffffffffffffffffffffffffffff82169050919050565b60006106ff826106d4565b9050919050565b61070f816106f4565b811461071a57600080fd5b50565b60008135905061072c81610706565b92915050565b6000806040838503121561074957610748610676565b5b60006107578582860161071d565b925050602061076885828601610692565b9150509250929050565b600082825260208201905092915050565b7f42616c616e6365206e6f742073756666696369656e7400000000000000000000600082015250565b60006107b9601683610772565b91506107c482610783565b602082019050919050565b600060208201905081810360008301526107e8816107ac565b9050919050565b7f446f6e2774207472616e73666572206d6f6e657920746f20796f757273656c66600082015250565b6000610825602083610772565b9150610830826107ef565b602082019050919050565b6000602082019050818103600083015261085481610818565b9050919050565b7f4e487b7100000000000000000000000000000000000000000000000000000000600052601160045260246000fd5b600061089582610642565b91506108a083610642565b9250828210156108b3576108b261085b565b5b828203905092915050565b7f4e487b7100000000000000000000000000000000000000000000000000000000600052600160045260246000fd5b60006108f882610642565b915061090383610642565b9250827fffffffffffffffffffffffffffffffffffffffffffffffffffffffffffffffff038211156109385761093761085b565b5b82820190509291505056fea264697066735822122034aaae7cb5d781961ca357936129ea6a8b232fd5c4725c45548c739235a8afec64736f6c634300080a0033",
  "immutableReferences": {},
  "source": "// SPDX-License-Identifier: MIT\r\npragma solidity ^0.8.10;\r\n\r\nimport \"./Ownable.sol\";\r\nimport \"./Destroyable.sol\";\r\n\r\n/**\r\n * @title  Bank  \r\n * @author Lodgerio Padlan\r\n * @dev \r\n        - make sure that the user can not withdraw more than their balance\r\n        - correctly adjust the balance of the user after a withdrawal\r\n        - if someone doesn't have enough balance for their withdrawal, the function call should throw an error and revert the transaction.\r\n\r\n        - accept money and keep track of transfer money between different Ethereum      \r\n        - test: \r\n            - address 1 deposited 1 ether.. getBalance() will give us 1 ether balance for address 1.\r\n\t\t    - address 2 deposited 3 ether.. getBalance() will give us 2 ether balance for address 2.\r\n\t\t    - but the deployed contract will have 3 ether. \r\n\t\t    - because we are only tracking the balance internally using \"balance\" mapping.\t\r\n\r\n * @notice  A simply smart contract to demonstrate Inheritance\r\n*/\r\ncontract Bank is Ownable, Destroyable {\r\n    \r\n    mapping(address => uint) balance;\r\n    \r\n    event depositDone(uint amount, address indexed depositedTo);\r\n    \r\n    function deposit() public payable returns (uint)  {\r\n        balance[msg.sender] += msg.value;\r\n        emit depositDone(msg.value, msg.sender);\r\n        return balance[msg.sender];\r\n    }\r\n    \r\n    function withdraw(uint amount) public onlyOwner returns (uint){\r\n        require(balance[msg.sender] >= amount);\r\n        payable(msg.sender).transfer(amount);\r\n        return balance[msg.sender];\r\n    }\r\n    \r\n    function getBalance() public view returns (uint){\r\n        return balance[msg.sender];\r\n    }\r\n    \r\n    function transfer(address recipient, uint amount) public {\r\n        require(balance[msg.sender] >= amount, \"Balance not sufficient\");\r\n        require(msg.sender != recipient, \"Don't transfer money to yourself\");\r\n        \r\n        uint previousSenderBalance = balance[msg.sender];\r\n        \r\n        _transfer(msg.sender, recipient, amount);    \r\n        \r\n        assert(balance[msg.sender] == previousSenderBalance - amount);\r\n    }\r\n    \r\n    function _transfer(address from, address to, uint amount) private {\r\n        balance[from] -= amount;\r\n        balance[to] += amount;\r\n    }\r\n    \r\n} \r\n\r\n",
  "sourcePath": "D:\\blockchain\\inheritanceTruffleProject\\contracts\\Bank.sol",
  "compiler": {
    "name": "solc",
    "version": "0.8.10+commit.fc410830.Emscripten.clang"
  },
  "schemaVersion": "3.4.4",
  "updatedAt": "2022-01-10T06:38:30.718Z",
  "devdoc": {
    "author": "Lodgerio Padlan",
    "details": " - make sure that the user can not withdraw more than their balance - correctly adjust the balance of the user after a withdrawal - if someone doesn't have enough balance for their withdrawal, the function call should throw an error and revert the transaction. - accept money and keep track of transfer money between different Ethereum       - test:  - address 1 deposited 1 ether.. getBalance() will give us 1 ether balance for address 1. - address 2 deposited 3 ether.. getBalance() will give us 2 ether balance for address 2. - but the deployed contract will have 3 ether.  - because we are only tracking the balance internally using \"balance\" mapping.\t",
    "kind": "dev",
    "methods": {},
    "title": "Bank  ",
    "version": 1
  },
  "userdoc": {
    "kind": "user",
    "methods": {},
    "notice": "A simply smart contract to demonstrate Inheritance",
    "version": 1
  }
}